:100000000C9446000C9465000C9465000C946500FB
:100010000C9465000C9465000C9465000C946500CC
:100020000C9465000C9465000C9465000C946500BC
:100030000C9465000C9465000C9465000C946500AC
:100040000C9465000C9465000C9465000C9465009C
:100050000C9465000C9465000C9465000C9465008C
:100060000C9465000C9465000C9465000C9465007C
:100070000C9465000C9465000C9465000C9465006C
:100080000C9465000C9465000C94650011241FBE4F
:10009000CFEFD0E4DEBFCDBF11E0A0E0B1E0E6EBF2
:1000A000F3E000E00BBF02C007900D92A231B10750
:1000B000D9F711E0A2E1B1E001C01D92A731B1076B
:1000C000E1F70E94E8000C94D9010C940000CF9352
:1000D000C82F8A3019F48DE00E9467009091C0000B
:1000E00095FFFCCFC093C60080E090E0CF910895CB
:1000F000CF93DF9380B180958093140120911501F7
:10010000309116012130310579F038F02230310577
:10011000A1F023303105C1F01FC081E090E0909341
:1001200016018093150118C080FF16C082E090E090
:1001300090931601809315010FC083E090E0909397
:1001400016018093150108C080FD06C081E090E093
:1001500090931601809315018091150190911601DD
:10016000009719F0029719F030C018B82EC00E94FD
:100170006701C5E0D0E0BE010E94F4008093130146
:100180000E946701BE010E94F400482F8093120173
:1001900080911301841308C090E0019665E070E03F
:1001A0000E94F4008093130121E030E0C901009027
:1001B000130102C0880F991F0A94E2F702C0220FB0
:1001C000331F4A95E2F7282B28B9DF91CF91089584
:1001D00011B88FEF82B987B918B810921601109232
:1001E00015010E947800FDCF97FB072E16F40094AE
:1001F00007D077FD09D00E94080107FC05D03EF426
:10020000909581959F4F0895709561957F4F0895C2
:10021000AA1BBB1B51E107C0AA1FBB1FA617B7072C
:1002200010F0A61BB70B881F991F5A95A9F7809548
:100230009095BC01CD0108958F929F92AF92BF928D
:10024000CF92DF92EF92FF92CF93DF93EC01688120
:1002500079818A819B81611571058105910521F460
:1002600064E279ED8BE597E02DE133EF41E050E07A
:100270000E94890149015A019B01AC01A7EAB1E43E
:100280000E9476016B017C01ACEEB4EFA5019401F4
:100290000E948401DC01CB018C0D9D1DAE1DBF1D94
:1002A000B7FF03C00197A109B04888839983AA8347
:1002B000BB839F77DF91CF91FF90EF90DF90CF903E
:1002C000BF90AF909F908F9008950C941C018EE08A
:1002D00091E00C941C01A0E0B0E080930E0190939B
:1002E0000F01A0931001B093110108950E94A8017D
:1002F000A59F900DB49F900DA49F800D911D11247A
:100300000895B7FF0C9476010E947601821B930B2F
:100310000895052E97FB1EF400940E94A00157FD3E
:1003200007D00E94B70107FC03D04EF40C94A00143
:1003300050954095309521953F4F4F4F5F4F089511
:1003400090958095709561957F4F8F4F9F4F089541
:10035000A29FB001B39FC001A39F700D811D112406
:10036000911DB29F700D811D1124911D0895A1E270
:100370001A2EAA1BBB1BFD010DC0AA1FBB1FEE1F1F
:10038000FF1FA217B307E407F50720F0A21BB30B6A
:10039000E40BF50B661F771F881F991F1A9469F7E6
:1003A00060957095809590959B01AC01BD01CF0142
:0603B0000895F894FFCF50
:1003B60000000002000000006700000000000100CD
:0203C600000035
:00000001FF
