:100000000C9446000C9465000C9465000C946500FB
:100010000C9465000C9465000C9465000C946500CC
:100020000C9465000C9465000C9465000C946500BC
:100030000C9465000C9465000C9465000C946500AC
:100040000C9465000C9465000C9465000C9465009C
:100050000C9465000C9465000C9465000C9465008C
:100060000C9465000C9465000C9465000C9465007C
:100070000C9465000C9465000C9465000C9465006C
:100080000C9465000C9465000C94650011241FBE4F
:10009000CFEFD0E4DEBFCDBF11E0A0E0B1E0E2E2FF
:1000A000F4E000E00BBF02C007900D92A231B1074F
:1000B000D9F721E0A2E1B1E001C01D92A731B2075A
:1000C000E1F70E9402010C940F020C940000CF9300
:1000D000C82F8A3051F09091C00095FFFCCFC0939B
:1000E000C60090E080E0CF9108958DE00E94670007
:1000F000F2CFCF93DF9320B120952093140180910C
:100100001501909116018230910591F170F40097DC
:10011000B9F00197D9F52F70213019F181E090E005
:10012000909316018093150111C0039779F520FF74
:1001300026C083E090E0909316018093150106C0DD
:1001400081E090E090931601809315018091150154
:1001500090911601009709F1029709F1DF91CF9173
:10016000089582E090E09093160180931501EECF00
:1001700083E090E09093160180931501E7CF81E032
:1001800090E09093160180931501E0CF81E090E01C
:100190009093160180931501D9CF18B8DFCF0E9434
:1001A0009D01C5E0D0E0BE010E940E018F5F8093EB
:1001B00013010E949D01BE010E940E0121E0280F43
:1001C0002093120180911301281791F030911301AF
:1001D00081E090E0AC0102C0440F551F3A95E2F770
:1001E00002C0880F991F2A95E2F7842B88B9B6CFF1
:1001F00090E0019665E070E00E940E018F5F8093B1
:100200001301E4CF11B88FEF82B987B918B81092F3
:100210001601109215010E947900FDCF97FB072E61
:1002200016F4009407D077FD09D00E94220107FC44
:1002300005D03EF4909581959F4F089570956195F6
:100240007F4F0895AA1BBB1B51E107C0AA1FBB1F0C
:10025000A617B70710F0A61BB70B881F991F5A9552
:10026000A9F780959095BC01CD010895CF92DF92BA
:10027000EF92FF92CF93DF93CDB7DEB72A970FB6F9
:10028000F894DEBF0FBECDBF89879A87A985BA854E
:100290002D913D914D915C9129833A834B835C83F1
:1002A000232B242B252B41F424E239ED4BE557E099
:1002B00029833A834B835C8369817A818B819C811A
:1002C0002DE133EF41E050E00E94AC0169017A0179
:1002D000A7EAB1E49B01AC010E94CB0169837A8358
:1002E0008B839C83ACEEB4EFA70196010E94D901E9
:1002F0009B01AC0189819A81AB81BC81820F931FE4
:10030000A41FB51FB7FF03C00197A109B048E98535
:10031000FA8580839183A283B3839F772A960FB651
:10032000F894DEBF0FBECDBFDF91CF91FF90EF906D
:10033000DF90CF9008950C9436018EE091E00C94FC
:100340003601B0E0A0E080930E0190930F01A093DE
:100350001001B09311010895052E97FB1EF400942F
:100360000E94C30157FD07D00E94DE0107FC03D0A5
:100370004EF40C94C30150954095309521953F4F14
:100380004F4F5F4F089590958095709561957F4F81
:100390008F4F9F4F08950E940002A59F900DB49F1C
:1003A000900DA49F800D911D11240895B7FF0C940A
:1003B000CB010E94CB01821B930B0895A1E21A2E60
:1003C000AA1BBB1BFD010DC0AA1FBB1FEE1FFF1FF9
:1003D000A217B307E407F50720F0A21BB30BE40B49
:1003E000F50B661F771F881F991F1A9469F7609590
:1003F0007095809590959B01AC01BD01CF0108954A
:10040000A29FB001B39FC001A39F700D811D112455
:10041000911DB29F700D811D1124911D0895F894B6
:02042000FFCF0C
:100422000000000200000000670000000000010060
:020432000000C8
:00000001FF
